:100000000C9485000C94A2000C94A2000C94A20005
:100010000C94A2000C94A2000C94A2000C94A200D8
:100020000C94A2000C94A2000C94A2000C94A200C8
:100030000C94A2000C94A2000C94A2000C94A200B8
:100040000C94A2000C94A2000C94A2000C94A200A8
:100050000C94A200BD0440054005400540059C04E9
:100060004005400540054005400540054005C804E1
:10007000B2044005D304DE04E904F404FF040A05D5
:10008000150520052B053605400540054005A7044C
:10009000400540054005E10340052E0444040204E8
:1000A000EC0340056504910440055A0440057B04B7
:1000B0002304400540050D04F70386044F0418048B
:1000C00040054005400539047004400540054005E1
:1000D000400540054005E10340052E0444040204A8
:1000E000EC0340056504910440055A0440057B0477
:1000F0002304400540050D04F70386044F0418044B
:100100004005400540053904700411241FBECFE5A9
:10011000D8E0DEBFCDBF10E0A0E6B0E0E8ECF5E14E
:1001200002C005900D92AA3AB107D9F720E0AAEAD9
:10013000B0E001C01D92AD3AB207E1F70E947C0227
:100140000C94E20A0C9400000E9401030E94210614
:100150008CE990E00E94E40785EA90E00E940307A2
:1001600008958F929F92AF92BF92CF92DF92EF92BB
:10017000FF920F931F93CF93DF93CDB7DEB72897EE
:100180000FB6F894DEBF0FBECDBF8C0119821A8264
:100190001B821C821D821E821F821886AE014F5F49
:1001A0005F4F68E070E080E00E943D07CD80DE8018
:1001B000EF80F884F801C186D286E386F4868980D0
:1001C0009A80AB80BC8081829282A382B482A50196
:1001D0009401C701B6010E944A08F801658376833D
:1001E00087839087A701960160E070E080E89FE335
:1001F0000E94B708F801658776878787908B20E093
:1002000030E048EC52E4C501B4010E94E609A701C0
:1002100096010E94B7080E942909F8016083289678
:100220000FB6F894DEBF0FBECDBFDF91CF911F9107
:100230000F91FF90EF90DF90CF90BF90AF909F9085
:100240008F900895AF92BF92CF92DF92EF92FF927C
:100250000F931F93CF93DF93CDB7DEB7EC970FB615
:10026000F894DEBF0FBECDBF5C016A017B010E9426
:10027000210680E00E940D068CE0E0E6F0E0DE0161
:10028000119601900D928A95E1F7FE013D9683E06B
:10029000DF011D928A95E9F7CE0101960E945E0565
:1002A000F50165857685878590890E94C00585E082
:1002B000E7E9F0E0DE01509601900D928A95E1F7B2
:1002C000CE0140960E945E0581E00E940D0687E007
:1002D000EFE6F0E0DE01559601900D928A95E1F788
:1002E000FE017C9688E0DF011D928A95E9F7CE0138
:1002F00045960E945E05F501608170E080E090E027
:100300000E946B0580917E0090917F009DA38CA33D
:1003100080918000909181009FA38EA318A6CE01AA
:1003200084960E945E0586E00E940D0610E04EC095
:1003300020E430E44EE752E062E070E080E090E0DC
:100340000E9473031B5F00E00CC022E032E042E039
:1003500052E062E070E080E090E00E9473031B5F77
:100360000F5FD50111966D917D918D919C911497A0
:10037000A70196010E94B7080E942909061728F3D1
:1003800022E032E04EE750E460E470E080E090E08C
:100390000E9473031B5F00E00CC020E430E440E4E3
:1003A00050E460E470E080E090E00E9473031B5F23
:1003B0000F5FF5016581768187819085A7019601A0
:1003C0000E94B7080E942909061738F3183708F465
:1003D000AFCF85E00E940D0620E03EE348E05CE1FF
:1003E0006AE270E080E090E00E94730310E00BC0CE
:1003F00028E038E048E058E068E070E080E090E015
:100400000E9473031F5FD50111966D917D918D91AF
:100410009C911497A70196010E94B7080E94290990
:10042000161730F328E038E048E058E068E070E064
:1004300080E090E00E94730310E00BC028E038E0F9
:1004400048E058E068E070E080E090E00E947303CC
:100450001F5FF5016581768187819085A7019601EF
:100460000E94B7080E942909161740F32AE23CE1CE
:1004700048E05EE360E070E080E090E00E9473039B
:1004800084E00E940D0688E0E3E8F0E0DE01999642
:1004900001900D928A95E1F7FE01F19687E0DF0168
:1004A0001D928A95E9F7CE0189960E945E05F501B5
:1004B00061857285838594850E94C00585E0E2E9A7
:1004C000F0E0DE01D89601900D928A95E1F7CE0119
:1004D000C8960E945E05EC960FB6F894DEBF0FBE7C
:1004E000CDBFDF91CF911F910F91FF90EF90DF90E3
:1004F000CF90BF90AF900895CF93DF93CDB7DEB785
:1005000061970FB6F894DEBF0FBECDBF0E94A40066
:10051000FE01319681E1DF011D928A95E9F7CE0156
:1005200001960E94B1006A857B858C859D8520E0BF
:1005300030E040EA50E40E94B708AB01BC01CE01B4
:1005400001960E942201BFEF21EE84E0B1502040CD
:100550008040E1F700C00000E2CF813089F028F050
:100560008230C9F0833011F1089540E064E081E009
:100570000E94C10640E065E081E00E94C106089546
:1005800041E064E081E00E94C10640E065E081E076
:100590000E94C106089540E064E081E00E94C10627
:1005A00041E065E081E00E94C106089541E064E019
:1005B00081E00E94C10641E065E081E00E94C10641
:1005C0000895CF93C82F40E062E081E00E94C10609
:1005D00040E061E081E00E94C1066C2F80E00E9453
:1005E000FA0641E060E081E00E94C1068AE18A9556
:1005F000F1F700C040E060E081E00E94C106CF91C9
:10060000089541E060E081E00E949A0641E062E0E6
:1006100081E00E949A0641E061E081E00E949A0632
:1006200041E066E081E00E949A0641E064E081E0FA
:100630000E949A0641E065E081E00E949A0661E02E
:1006400080E00E94E80641E066E081E00E94C10689
:1006500083E00E94AD028EE30E94E10288EB0E94DB
:10066000E1021092AC0080E40E94E1021092AB0023
:1006700080EC0E94E1028FE30E94E10281E00E948F
:10068000AD021092AA000895CF93C82F41E062E016
:1006900081E00E94C10640E061E081E00E94C10665
:1006A0006C2F80E00E94FA0641E060E081E00E9449
:1006B000C1068AE18A95F1F700C040E060E081E080
:1006C0000E94C106CF91089540E066E081E00E945B
:1006D000C10685E38A95F1F7000041E066E081E01C
:1006E0000E94C10608959F92AF92BF92CF92DF926F
:1006F000EF92FF920F931F93CF93DF93922EA32E2F
:10070000B42EC52ED62EE72EF82ED92FC0E030C03D
:100710008091AC0088540E94E1028091AB00805C23
:100720000E94E1020C2F10E0000F111F000F111F9B
:10073000000F111F292D3A2D4B2D5C2D6D2D7E2D77
:100740008F2D9D2F0E94950A822F0E944403809135
:10075000AB008F5F8093AB00803448F08091AA009B
:10076000811105C082E00E94AD021092AB00CF5F04
:10077000C53070F2DF91CF911F910F91FF90EF90F4
:10078000DF90CF90BF90AF909F900895E82F91E0B9
:100790008091AA00811190E081E02091AB00293383
:1007A00008F080E0892B09F488C18E2F90E0FC01CD
:1007B000B097EB35F10508F063C1E65DFF4F0C948F
:1007C000820A2CE732E141E152E16CE770E080E01F
:1007D00090E00E94730354C12FE739E049E059E0EB
:1007E00061E070E080E090E00E94730349C12FE770
:1007F00039E049E159E26FE470E080E090E00E9466
:1008000073033EC12FE739E449E459E461E470E041
:1008100080E090E00E94730333C12EE131E241E3B6
:100820005EE360E470E080E090E00E94730328C122
:100830002FE330E440E450E46FE370E080E090E0C8
:100840000E9473031DC12FE732E04CE150E26FE7D5
:1008500070E080E090E00E94730312C12EE331E467
:1008600041E451E461E470E080E090E00E947303B1
:1008700007C123E03CE040E75CE063E070E080E03B
:1008800090E00E947303FCC02FE731E441E45EE393
:1008900060E070E080E090E00E947303F1C021E02E
:1008A00031E04FE751E061E070E080E090E00E94CD
:1008B0007303E6C02FE738E044E152E261E470E000
:1008C00080E090E00E947303DBC02FE738E048E04F
:1008D00058E06FE770E080E090E00E947303D0C0C2
:1008E00021E631E549E455E463E470E080E090E01E
:1008F0000E947303C5C02FE732E04CE052E06FE77F
:1009000070E080E090E00E947303BAC02FE439E405
:1009100049E459E469EF70E080E090E00E947303DD
:10092000AFC021E431E44FE751E461E470E080E0DE
:1009300090E00E947303A4C023EC33E748E15EEC2F
:1009400063EC70E080E090E00E94730399C024E2C1
:1009500034E244E254E264E270E080E090E00E941D
:1009600073038EC020E030E740E750E760E070E0BE
:1009700080E090E00E94730383C020E030E040E01C
:1009800050E060E070E080E090E00E94730378C087
:1009900028E138E148E158E168E170E080E090E06A
:1009A0000E9473036DC02EE331E549E455E46EE324
:1009B00070E080E090E00E94730362C024E432E4BF
:1009C0004FE750E460E470E080E090E00E94730341
:1009D00057C026E431E641E55EE460E470E080E083
:1009E00090E00E9473034CC021E439E449E459E4E7
:1009F00066E370E080E090E00E94730341C028E16C
:100A000034E142E15FE760E170E080E090E00E9465
:100A1000730336C02FE439E449E451E561E270E044
:100A200080E090E00E9473032BC02CE73AE449E495
:100A300059E461E370E080E090E00E94730320C01D
:100A400021E039E449E259E16FE070E080E090E0B4
:100A50000E94730315C027E739E449E459E467E7C6
:100A600070E080E090E00E9473030AC02FE439E454
:100A700049E459E46FE770E080E090E00E9473037E
:100A80008091AC0088540E94E1028091AB00805CB0
:100A90000E94E10280E00E9444038091AB008F5FDE
:100AA0008093AB00803448F08091AA00811105C08A
:100AB00082E00E94AD021092AA000895CF93DF93C6
:100AC000EC0103C00E94C603219688818111FACFF0
:100AD000DF91CF910895CF92DF92EF92FF920F9323
:100AE0001F93CF93DF9300D000D01F92CDB7DEB716
:100AF0006B017C0199235CF48DE20E94C603F094A3
:100B0000E094D094C094C11CD11CE11CF11C1A8249
:100B10001982FE01339683E0DF011D928A95E9F781
:100B20008E010F5F1F4FC701B6012AE030E040E0A1
:100B300050E00E94630A605DF80161938F01C22E4C
:100B4000D32EE42EF52E1C141D041E041F045CF38A
:100B5000D8018E918D010E94C603CE0101968017A7
:100B60009107B1F70F900F900F900F900F90DF91BA
:100B7000CF911F910F91FF90EF90DF90CF9008954C
:100B80008F929F92AF92BF92CF92DF92EF92FF929D
:100B9000CF93DF934B015C010E9429096B01E12C8B
:100BA000F12CC701B6010E946B058EE20E94C603BC
:100BB000C701B6010E9458099B01AC01C501B401EF
:100BC0000E944A08D0E01CC020E030E040E251E43E
:100BD0000E94E6096B017C010E942909C62F80E36F
:100BE0008C0F0E94C6036C2F70E080E090E00E94A2
:100BF0005A099B01AC01C701B6010E944A08DF5F98
:100C0000D33010F3DF91CF91FF90EF90DF90CF9032
:100C1000BF90AF909F908F900895CF93883078F4D5
:100C2000C82F81E00E94AD02C093AC0088EB8C0F0E
:100C30000E94E1021092AB0080E40E94E102CF9199
:100C40000895CF93DF93D0E013C08D2F0E940D063F
:100C500083E00E94AD02C0E008C080E48C0F0E94D7
:100C6000E10280E00E944403CF5FC034B0F3DF5F55
:100C7000D83058F30E94640381E00E94AD021092C4
:100C8000AA0080E00E940D06DF91CF910895813087
:100C9000A9F028F0823009F1833071F13CC0613055
:100CA000E9F118F0623039F003C08AE390E008956A
:100CB00080E090E0089589E390E00895613089F143
:100CC00018F0623039F003C087E390E0089580E0C7
:100CD00090E0089586E390E00895613029F118F0DE
:100CE000623039F003C084E390E0089580E090E042
:100CF000089583E390E008956130C9F018F0623000
:100D000039F003C081E390E0089580E090E0089519
:100D100080E390E0089580E090E008958BE390E018
:100D2000089588E390E0089585E390E0089582E3D4
:100D300090E00895CF93DF93D62FC42F60E00E94F8
:100D40004706CC2319F0C13071F018C0FC01408176
:100D500021E030E002C0220F331FDA95E2F7209540
:100D6000242320830BC0FC01408121E030E002C03D
:100D7000220F331FDA95E2F7242B2083DF91CF91E6
:100D80000895CF93DF93D62FC42F61E00E944706CA
:100D9000CC2319F0C13071F018C0FC01408121E072
:100DA00030E002C0220F331FDA95E2F720952423AA
:100DB00020830BC0FC01408121E030E002C0220F03
:100DC000331FDA95E2F7242B2083DF91CF9108952A
:100DD000CF93C62F60E00E944706CC2319F0C130A4
:100DE00021F006C0FC01108203C02FEFFC0120831C
:100DF000CF910895CF93C62F61E00E944706FC0172
:100E0000C083CF910895FC0181B38F7B81BB1FBC50
:100E10001EBC9EB58181892B8EBD8EB5928140E42A
:100E2000949F90011124282B2EBD29B7938130E285
:100E3000939FC0011124822B89BF1DBC1CBC17BC11
:100E400016BC08959EB59F7B9EBD9EB580E4689FAD
:100E5000B0011124692B6EBD08951DBC1CBC089502
:100E600086B597B5089508B605FE05C088B78062B7
:100E700088BF81E0089580E008954F925F926F925D
:100E80007F928F929F92AF92BF92CF92DF92EF921A
:100E9000FF920F931F93CF93DF93EB018A0188B7E3
:100EA000806288BF61E080E00E94220780E00E94AB
:100EB00033078823D9F360E080E00E94220780E0B6
:100EC0000E942D0788B7806288BFC12CD12C760183
:100ED00009C008B602FE06C088B7846088BF8FEFDD
:100EE000E81AF80A80E00E943307882391F380E033
:100EF0000E943007C80ED91EE11CF11C61E080E0A1
:100F00000E94220780E00E942D0788B7806288BF78
:100F100006C008B602FE03C088B7846088BF80E0C0
:100F20000E9433078823A9F380E00E9430074C0118
:100F3000A12CB12C2E01612C712CA7019601C301AB
:100F4000B2010E94530A0E94580920E030E04AE7AB
:100F500054E40E94E60920E034E244E75BE40E94A6
:100F6000B708F8016083718382839383C701B60158
:100F7000680D791D8A1D9B1DA30192010E94530AD1
:100F80000E94580920E030E04AE754E40E94E60954
:100F900020E034E244E75BE40E94B708F801648390
:100FA000758386839783DF91CF911F910F91FF9077
:100FB000EF90DF90CF90BF90AF909F908F907F90F9
:100FC0006F905F904F900895FC0187B3886087BB56
:100FD00013BE23B79181990F990F990F922B9064AB
:100FE00093BF23B793819295907F922B906293BF8A
:100FF0008281843069F018F4833030F012C09AEFA7
:10100000980F943050F00DC093B7892B83BF09C05F
:1010100093B78150892B83BF04C093B78250892B2B
:1010200083BF1CBE8381882319F08130A1F030C0BA
:1010300060858FEF689FB001112480E090E00E94EE
:10104000580920E030E048EC52E40E94B7080E94C2
:1010500029096CBF1DC0608570E080E090E00E94AF
:101060005A099B01AC0160E070E088EC92E40E94B8
:101070004A0820E030E04FE753E40E94E60920E010
:1010800030E048EC52E40E94B7080E9429096CBF86
:1010900012BE08955058BB27AA270E9462080C94DC
:1010A000AC090E949E0938F00E94A50920F039F48D
:1010B0009F3F19F426F40C949B090EF4E095E7FB8E
:1010C0000C949509E92F0E94BD0958F3BA176207DD
:1010D00073078407950720F079F4A6F50C94DF09CF
:1010E0000EF4E0950B2EBA2FA02D0B01B901900143
:1010F0000C01CA01A0011124FF27591B99F0593F87
:1011000050F4503E68F11A16F040A22F232F342FCE
:101110004427585FF3CF469537952795A795F0401C
:101120005395C9F77EF41F16BA0B620B730B840B31
:10113000BAF09150A1F0FF0FBB1F661F771F881FE9
:10114000C2F70EC0BA0F621F731F841F48F4879541
:1011500077956795B795F7959E3F08F0B0CF939533
:10116000880F08F09927EE0F9795879508950E94AC
:10117000CB080C94AC090E94A50958F00E949E0966
:1011800040F029F45F3F29F00C94950951110C941B
:10119000E0090C949B090E94BD0968F39923B1F3FF
:1011A000552391F3951B550BBB27AA27621773078D
:1011B000840738F09F5F5F4F220F331F441FAA1F21
:1011C000A9F335D00E2E3AF0E0E832D091505040DD
:1011D000E695001CCAF72BD0FE2F29D0660F771F8B
:1011E000881FBB1F261737074807AB07B0E809F071
:1011F000BB0B802DBF01FF2793585F4F3AF09E3FF6
:10120000510578F00C9495090C94E0095F3FE4F3E4
:10121000983ED4F3869577956795B795F7959F5F38
:10122000C9F7880F911D9695879597F90895E1E084
:10123000660F771F881FBB1F621773078407BA07E3
:1012400020F0621B730B840BBA0BEE1F88F7E0953E
:1012500008950E94C50988F09F5798F0B92F9927E3
:10126000B751B0F0E1F0660F771F881F991F1AF091
:10127000BA95C9F714C0B13091F00E94DF09B1E00E
:1012800008950C94DF09672F782F8827B85F39F00D
:10129000B93FCCF3869577956795B395D9F73EF42A
:1012A00090958095709561957F4F8F4F9F4F0895D2
:1012B000E89409C097FB3EF49095809570956195F0
:1012C0007F4F8F4F9F4F9923A9F0F92F96E9BB27A6
:1012D0009395F695879577956795B795F111F8CF22
:1012E000FAF4BB0F11F460FF1BC06F5F7F4F8F4F8D
:1012F0009F4F16C0882311F096E911C0772321F083
:101300009EE8872F762F05C0662371F096E8862F1A
:1013100070E060E02AF09A95660F771F881FDAF771
:10132000880F9695879597F9089597F99F6780E8B4
:1013300070E060E008959FEF80EC089500240A9427
:101340001616170618060906089500240A941216A0
:101350001306140605060895092E0394000C11F4D3
:10136000882352F0BB0F40F4BF2B11F460FF04C080
:101370006F5F7F4F8F4F9F4F089557FD9058440FD9
:10138000551F59F05F3F71F04795880F97FB991FE4
:1013900061F09F3F79F087950895121613061406A1
:1013A000551FF2CF4695F1DF08C01616170618062E
:1013B000991FF1CF86957105610508940895E89409
:1013C000BB2766277727CB0197F908950E94F90973
:1013D0000C94AC090E949E0938F00E94A50920F0E7
:1013E000952311F00C9495090C949B0911240C94ED
:1013F000E0090E94BD0970F3959FC1F3950F50E07D
:10140000551F629FF001729FBB27F00DB11D639FB6
:10141000AA27F00DB11DAA1F649F6627B00DA11D5C
:10142000661F829F2227B00DA11D621F739FB00D02
:10143000A11D621F839FA00D611D221F749F332772
:10144000A00D611D231F849F600D211D822F762F0B
:101450006A2F11249F5750409AF0F1F088234AF0E8
:10146000EE0FFF1FBB1F661F771F881F9150504054
:10147000A9F79E3F510580F00C9495090C94E00962
:101480005F3FE4F3983ED4F3869577956795B795DB
:10149000F795E7959F5FC1F7FE2B880F911D9695F5
:1014A000879597F90895DB018F939F930E94880A8F
:1014B000BF91AF91A29F800D911DA39F900DB29FF0
:1014C000900D11240895052E97FB1EF400940E94A0
:1014D0007A0A57FD07D00E94B10A07FC03D04EF4E8
:1014E0000C947A0A50954095309521953F4F4F4F77
:1014F0005F4F089590958095709561957F4F8F4FC0
:101500009F4F0895EE0FFF1F0590F491E02D099471
:101510000E94D30AA59F900DB49F900DA49F800DAB
:10152000911D1124089597FB10F8169400080F934D
:10153000083098F00850232F342F452F562F672F4F
:10154000782F892F902DF4CF0594979587957795CF
:10155000679557954795379527950A95AAF70F915F
:101560000895A1E21A2EAA1BBB1BFD010DC0AA1FE4
:10157000BB1FEE1FFF1FA217B307E407F50720F0FC
:10158000A21BB30BE40BF50B661F771F881F991F77
:101590001A9469F760957095809590959B01AC01C0
:1015A000BD01CF010895A29FB001B39FC001A39FC9
:1015B000700D811D1124911DB29F700D811D11248C
:0815C000911D0895F894FFCF7E
:1015C8004672657175656E63793D000000000044E0
:1015D8007574793D0000000000000000000020251F
:1015E8000000002054696D653D0000000000000007
:1015F8000000206D730000206B487A000001020192
:0A160800000104005A000200000077
:00000001FF
