S012000050574D5F4452415745522E73726563FA
S11300000C9485000C94A2000C94A2000C94A20001
S11300100C94A2000C94A2000C94A2000C94A200D4
S11300200C94A2000C94A2000C94A2000C94A200C4
S11300300C94A2000C94A2000C94A2000C94A200B4
S11300400C94A2000C94A2000C94A2000C94A200A4
S11300500C94A2006104E404E404E404E404400411
S1130060E404E404E404E404E404E404E4046C04C4
S11300705604E404770482048D049804A304AE04B3
S1130080B904C404CF04DA04E404E404E4044B042F
S1130090E404E404E4048503E404D203E803A603CB
S11300A09003E40409043504E404FE03E4041F0497
S11300B0C703E404E404B1039B032A04F303BC036D
S11300C0E404E404E404DD031404E404E404E404C4
S11300D0E404E404E4048503E404D203E803A6038B
S11300E09003E40409043504E404FE03E4041F0457
S11300F0C703E404E404B1039B032A04F303BC032D
S1130100E404E404E404DD03140411241FBECFE575
S1130110D8E0DEBFCDBF10E0A0E6B0E0E0E1F5E15D
S113012002C005900D92AA3AB107D9F720E0AAEAD5
S1130130B0E001C01D92AD3AB207E1F70E9420027F
S11301400C94860A0C9400000E94A5020E94C50526
S11301508CE990E00E94880785EA90E00E94A70657
S113016008958F929F92AF92BF92CF92DF92EF92B7
S1130170FF920F931F93CF93DF93CDB7DEB72897EA
S11301800FB6F894DEBF0FBECDBF8C0119821A8260
S11301901B821C821D821E821F821886AE014F5F45
S11301A05F4F68E070E080E00E94E106CD80DE8071
S11301B0EF80F884F801C186D286E386F4868980CC
S11301C09A80AB80BC8081829282A382B482A70190
S11301D0960160E070E080E89FE30E945B08F8010C
S11301E0658776878787908B20E030E048EC52E47F
S11301F0C501B4010E948A09A70196010E945B0807
S11302000E94CD08F801608328960FB6F894DEBFEB
S11302100FBECDBFDF91CF911F910F91FF90EF9053
S1130220DF90CF90BF90AF909F908F9008958F9262
S11302309F92AF92BF92EF92FF920F931F93CF932F
S1130240DF93CDB7DEB7EC970FB6F894DEBF0FBEE1
S1130250CDBF7C014A015B010E94C50580E00E947C
S1130260B10587E0E0E6F0E0DE01119601900D9221
S11302708A95E1F718E0FE013896DF01812F1D927F
S11302808A95E9F7CE0101960E940205D7011D96D1
S11302906D917D918D919C9150970E94640585E0AC
S11302A0E7E9F0E0DE01509601900D928A95E1F7BE
S11302B0CE0140960E94020582E00E94B10587E0CB
S11302C0EFE6F0E0DE01559601900D928A95E1F794
S11302D0FE017C96DF01812F1D928A95E9F7CE01FC
S11302E045960E940205D7016C9170E080E090E091
S11302F00E940F0580917E0090917F009DA38CA3A6
S113030080918000909181009FA38EA318A6CE01B6
S113031084960E94020584E00E94B10587E0E3E828
S1130320F0E0DE01999601900D928A95E1F7FE01C5
S1130330F096DF011D921A95E9F7CE0189960E9485
S11303400205F70161857285838594850E946405A1
S1130350809192009091930099AF88AF809194001E
S1130360909195009BAF8AAF1CAECE01C8960E94B7
S1130370020586E00E94B10510E04EC020E430E49E
S11303804EE752E062E070E080E090E00E941703E4
S11303901B5F00E00CC022E032E042E052E062E089
S11303A070E080E090E00E9417031B5F0F5FD701AD
S11303B011966D917D918D919C911497A501940155
S11303C00E945B080E94CD08061728F322E032E061
S11303D04EE750E460E470E080E090E00E94170390
S11303E01B5F00E00CC020E430E440E450E460E42F
S11303F070E080E090E00E9417031B5F0F5FF7013D
S11304006581768187819085A50194010E945B08AE
S11304100E94CD08061738F3183708F4AFCFEC96CE
S11304200FB6F894DEBF0FBECDBFDF91CF911F9101
S11304300F91FF90EF90BF90AF909F908F90089591
S1130440CF93DF93CDB7DEB761970FB6F894DEBFD5
S11304500FBECDBF0E94A400FE01319681E1DF01F1
S11304601D928A95E9F7CE0101960E94B1006A8532
S11304707B858C859D8520E030E040EA50E40E9435
S11304805B08AB01BC01CE0101960E941701BFEFCE
S113049023EC89E0B15020408040E1F700C0000027
S11304A0E2CF813089F028F08230C9F0833011F135
S11304B0089540E064E081E00E94650640E065E064
S11304C081E00E946506089541E064E081E00E94B5
S11304D0650640E065E081E00E946506089540E01D
S11304E064E081E00E94650641E065E081E00E94ED
S11304F06506089541E064E081E00E94650641E0FC
S113050065E081E00E9465060895CF93C82F40E01E
S113051062E081E00E94650640E061E081E00E94C3
S113052065066C2F80E00E949E0641E060E081E059
S11305300E9465068AE18A95F1F700C040E060E018
S113054081E00E946506CF91089541E060E081E07A
S11305500E943E0641E062E081E00E943E0641E0E6
S113056061E081E00E943E0641E066E081E00E9495
S11305703E0641E064E081E00E943E0641E065E021
S113058081E00E943E0661E080E00E948C0641E02A
S113059066E081E00E94650683E00E9451028EE3DA
S11305A00E94850288EB0E9485021092AC0080E4D0
S11305B00E9485021092AB0080EC0E9485028FE3BA
S11305C00E94850281E00E9451021092AA000895BF
S11305D0CF93C82F41E062E081E00E94650640E0CD
S11305E061E081E00E9465066C2F80E00E949E0617
S11305F041E060E081E00E9465068AE18A95F1F7B6
S113060000C040E060E081E00E946506CF9108955B
S113061040E066E081E00E94650685E38A95F1F793
S1130620000041E066E081E00E94650608959F9223
S1130630AF92BF92CF92DF92EF92FF920F931F93EC
S1130640CF93DF93922EA32EB42EC52ED62EE72E53
S1130650F82ED92FC0E030C08091AC0088540E949D
S113066085028091AB00805C0E9485020C2F10E013
S1130670000F111F000F111F000F111F292D3A2DFC
S11306804B2D5C2D6D2D7E2D8F2D9D2F0E94390AB3
S1130690822F0E94E8028091AB008F5F8093AB00B1
S11306A0803448F08091AA00811105C082E00E9444
S11306B051021092AB00CF5FC53070F2DF91CF9141
S11306C01F910F91FF90EF90DF90CF90BF90AF906C
S11306D09F900895E82F91E08091AA00811190E005
S11306E081E02091AB00293308F080E0892B09F4E4
S11306F088C18E2F90E0FC01B097EB35F10508F02E
S113070063C1E65DFF4F0C94260A2CE732E141E118
S113071052E16CE770E080E090E00E94170354C15E
S11307202FE739E049E059E061E070E080E090E0D3
S11307300E94170349C12FE739E049E159E26FE408
S113074070E080E090E00E9417033EC12FE739E497
S113075049E459E461E470E080E090E00E9417030A
S113076033C12EE131E241E35EE360E470E080E016
S113077090E00E94170328C12FE330E440E450E4E2
S11307806FE370E080E090E00E9417031DC12FE743
S113079032E04CE150E26FE770E080E090E00E94CC
S11307A0170312C12EE331E441E451E461E470E043
S11307B080E090E00E94170307C123E03CE040E79B
S11307C05CE063E070E080E090E00E941703FCC00E
S11307D02FE731E441E45EE360E070E080E090E024
S11307E00E941703F1C021E031E04FE751E061E0DE
S11307F070E080E090E00E941703E6C02FE738E045
S113080044E152E261E470E080E090E00E9417036A
S1130810DBC02FE738E048E058E06FE770E080E0A5
S113082090E00E941703D0C021E631E549E455E485
S113083063E470E080E090E00E941703C5C02FE7F6
S113084032E04CE052E06FE770E080E090E00E941C
S11308501703BAC02FE439E449E459E469EF70E0BE
S113086080E090E00E941703AFC021E431E44FE739
S113087051E461E470E080E090E00E941703A4C0BA
S113088023EC33E748E15EEC63EC70E080E090E059
S11308900E94170399C024E234E244E254E264E281
S11308A070E080E090E00E9417038EC020E030E703
S11308B040E750E760E070E080E090E00E941703BA
S11308C083C020E030E040E050E060E070E080E091
S11308D090E00E94170378C028E138E148E158E12C
S11308E068E170E080E090E00E9417036DC02EE3A1
S11308F031E549E455E46EE370E080E090E00E9465
S1130900170362C024E432E44FE750E460E470E08B
S113091080E090E00E94170357C026E431E641E5E9
S11309205EE460E470E080E090E00E9417034CC055
S113093021E439E449E459E466E370E080E090E0BE
S11309400E94170341C028E134E142E15FE760E11E
S113095070E080E090E00E94170336C02FE439E491
S113096049E451E561E270E080E090E00E94170301
S11309702BC02CE73AE449E459E461E370E080E0F9
S113098090E00E94170320C021E039E449E259E1D4
S11309906FE070E080E090E00E94170315C027E745
S11309A039E449E459E467E770E080E090E00E94AC
S11309B017030AC02FE439E449E459E46FE770E00F
S11309C080E090E00E9417038091AC0088540E945C
S11309D085028091AB00805C0E94850280E00E94C9
S11309E0E8028091AB008F5F8093AB00803448F0C5
S11309F08091AA00811105C082E00E9451021092E8
S1130A00AA000895CF93DF93EC0103C00E946A0308
S1130A10219688818111FACFDF91CF910895CF92E9
S1130A20DF92EF92FF920F931F93CF93DF9300D047
S1130A3000D01F92CDB7DEB76B017C0199235CF423
S1130A408DE20E946A03F094E094D094C094C11C97
S1130A50D11CE11CF11C1A821982FE01339683E039
S1130A60DF011D928A95E9F78E010F5F1F4FC701C1
S1130A70B6012AE030E040E050E00E94070A605DE1
S1130A80F80161938F01C22ED32EE42EF52E1C148F
S1130A901D041E041F045CF3D8018E918D010E9475
S1130AA06A03CE01019680179107B1F70F900F905A
S1130AB00F900F900F90DF91CF911F910F91FF90A6
S1130AC0EF90DF90CF9008958F929F92AF92BF9254
S1130AD0CF92DF92EF92FF92CF93DF934B015C01B1
S1130AE00E94CD086B01E12CF12CC701B6010E94D4
S1130AF00F058EE20E946A03C701B6010E94FC083A
S1130B009B01AC01C501B4010E94EE07D0E01CC0FA
S1130B1020E030E040E251E40E948A096B017C014C
S1130B200E94CD08C62F80E38C0F0E946A036C2FAD
S1130B3070E080E090E00E94FE089B01AC01C701D8
S1130B40B6010E94EE07DF5FD33010F3DF91CF913F
S1130B50FF90EF90DF90CF90BF90AF909F908F90D9
S1130B600895CF93883078F4C82F81E00E94510211
S1130B70C093AC0088EB8C0F0E9485021092AB00EE
S1130B8080E40E948502CF910895CF93DF93D0E053
S1130B9013C08D2F0E94B10583E00E945102C0E072
S1130BA008C080E48C0F0E94850280E00E94E80265
S1130BB0CF5FC034B0F3DF5FD83058F30E9408032E
S1130BC081E00E9451021092AA0080E00E94B105C7
S1130BD0DF91CF9108958130A9F028F0823009F196
S1130BE0833071F13CC06130E9F118F0623039F0C2
S1130BF003C08AE390E0089580E090E0089589E3DB
S1130C0090E00895613089F118F0623039F003C042
S1130C1087E390E0089580E090E0089586E390E013
S1130C200895613029F118F0623039F003C084E38B
S1130C3090E0089580E090E0089583E390E00895C3
S1130C406130C9F018F0623039F003C081E390E0FC
S1130C50089580E090E0089580E390E0089580E0B6
S1130C6090E008958BE390E0089588E390E0089580
S1130C7085E390E0089582E390E00895CF93DF93B5
S1130C80D62FC42F60E00E94EB05CC2319F0C130AD
S1130C9071F018C0FC01408121E030E002C0220F55
S1130CA0331FDA95E2F72095242320830BC0FC013F
S1130CB0408121E030E002C0220F331FDA95E2F7D1
S1130CC0242B2083DF91CF910895CF93DF93D62FE8
S1130CD0C42F61E00E94EB05CC2319F0C13071F000
S1130CE018C0FC01408121E030E002C0220F331F14
S1130CF0DA95E2F72095242320830BC0FC01408180
S1130D0021E030E002C0220F331FDA95E2F7242BF2
S1130D102083DF91CF910895CF93C62F60E00E9486
S1130D20EB05CC2319F0C13021F006C0FC01108280
S1130D3003C02FEFFC012083CF910895CF93C62FDA
S1130D4061E00E94EB05FC01C083CF910895FC0192
S1130D5081B38F7B81BB1FBC1EBC9EB58181892B57
S1130D608EBD8EB5928140E4949F90011124282B6E
S1130D702EBD29B7938130E2939FC0011124822BA9
S1130D8089BF1DBC1CBC17BC16BC08959EB59F7BB7
S1130D909EBD9EB580E4689FB0011124692B6EBD91
S1130DA008951DBC1CBC089586B597B5089508B672
S1130DB005FE05C088B7806288BF81E0089580E0A1
S1130DC008954F925F926F927F928F929F92AF920B
S1130DD0BF92CF92DF92EF92FF920F931F93CF9324
S1130DE0DF93EB018A0188B7806288BF61E080E00D
S1130DF00E94C60680E00E94D7068823D9F360E0EB
S1130E0080E00E94C60680E00E94D10688B7806216
S1130E1088BFC12CD12C760109C008B602FE06C0D9
S1130E2088B7846088BF8FEFE81AF80A80E00E94D0
S1130E30D706882391F380E00E94D406C80ED91EF9
S1130E40E11CF11C61E080E00E94C60680E00E9483
S1130E50D10688B7806288BF06C008B602FE03C008
S1130E6088B7846088BF80E00E94D7068823A9F3EE
S1130E7080E00E94D4064C01A12CB12C2E01612CDF
S1130E80712CA7019601C301B2010E94F7090E94C7
S1130E90FC0820E030E04AE754E40E948A0920E09C
S1130EA034E244E75BE40E945B08F80160837183E9
S1130EB082839383C701B601680D791D8A1D9B1D2A
S1130EC0A30192010E94F7090E94FC0820E030E08F
S1130ED04AE754E40E948A0920E034E244E75BE4F0
S1130EE00E945B08F8016483758386839783DF918E
S1130EF0CF911F910F91FF90EF90DF90CF90BF9013
S1130F00AF909F908F907F906F905F904F900895D7
S1130F10FC0187B3886087BB13BE23B79181990F07
S1130F20990F990F922B906493BF23B79381929555
S1130F30907F922B906293BF8281843069F018F481
S1130F40833030F012C09AEF980F943050F00DC0F7
S1130F5093B7892B83BF09C093B78150892B83BF73
S1130F6004C093B78250892B83BF1CBE838188231E
S1130F7019F08130A1F030C060858FEF689FB00117
S1130F80112480E090E00E94FC0820E030E048EC6E
S1130F9052E40E945B080E94CD086CBF1DC06085AE
S1130FA070E080E090E00E94FE089B01AC0160E0EC
S1130FB070E088EC92E40E94EE0720E030E04FE716
S1130FC053E40E948A0920E030E048EC52E40E9495
S1130FD05B080E94CD086CBF12BE08955058BB2711
S1130FE0AA270E9406080C9450090E94420938F06E
S1130FF00E94490920F039F49F3F19F426F40C9417
S11310003F090EF4E095E7FB0C943909E92F0E949F
S1131010610958F3BA17620773078407950720F02C
S113102079F4A6F50C9483090EF4E0950B2EBA2FEF
S1131030A02D0B01B90190010C01CA01A0011124DA
S1131040FF27591B99F0593F50F4503E68F11A1686
S1131050F040A22F232F342F4427585FF3CF469517
S113106037952795A795F0405395C9F77EF41F1639
S1131070BA0B620B730B840BBAF09150A1F0FF0F03
S1131080BB1F661F771F881FC2F70EC0BA0F621FEF
S1131090731F841F48F4879577956795B795F795DF
S11310A09E3F08F0B0CF9395880F08F09927EE0F74
S11310B09795879508950E946F080C9450090E9493
S11310C0490958F00E94420940F029F45F3F29F091
S11310D00C94390951110C9484090C943F090E9411
S11310E0610968F39923B1F3552391F3951B550BCB
S11310F0BB27AA2762177307840738F09F5F5F4FE7
S1131100220F331F441FAA1FA9F335D00E2E3AF025
S1131110E0E832D091505040E695001CCAF72BD03D
S1131120FE2F29D0660F771F881FBB1F261737078E
S11311304807AB07B0E809F0BB0B802DBF01FF27C0
S113114093585F4F3AF09E3F510578F00C9439095B
S11311500C9484095F3FE4F3983ED4F38695779525
S11311606795B795F7959F5FC9F7880F911D969579
S1131170879597F90895E1E0660F771F881FBB1FD5
S1131180621773078407BA0720F0621B730B840B82
S1131190BA0BEE1F88F7E09508950E94690988F05C
S11311A09F5798F0B92F9927B751B0F0E1F0660F27
S11311B0771F881F991F1AF0BA95C9F714C0B13068
S11311C091F00E948309B1E008950C948309672F7C
S11311D0782F8827B85F39F0B93FCCF38695779597
S11311E06795B395D9F73EF4909580957095619580
S11311F07F4F8F4F9F4F0895E89409C097FB3EF4AB
S113120090958095709561957F4F8F4F9F4F99234F
S1131210A9F0F92F96E9BB279395F69587957795CD
S11312206795B795F111F8CFFAF4BB0F11F460FF8D
S11312301BC06F5F7F4F8F4F9F4F16C0882311F0E5
S113124096E911C0772321F09EE8872F762F05C0F9
S1131250662371F096E8862F70E060E02AF09A9594
S1131260660F771F881FDAF7880F9695879597F989
S1131270089597F99F6780E870E060E008959FEF14
S113128080EC089500240A94161617061806090619
S1131290089500240A9412161306140605060895E8
S11312A0092E0394000C11F4882352F0BB0F40F470
S11312B0BF2B11F460FF04C06F5F7F4F8F4F9F4FB0
S11312C0089557FD9058440F551F59F05F3F71F032
S11312D04795880F97FB991F61F09F3F79F0879599
S11312E00895121613061406551FF2CF4695F1DF22
S11312F008C0161617061806991FF1CF86957105B2
S1131300610508940895E894BB2766277727CB01E5
S113131097F908950E949D090C9450090E9442096E
S113132038F00E94490920F0952311F00C943909F2
S11313300C943F0911240C9484090E94610970F3F0
S1131340959FC1F3950F50E0551F629FF001729F66
S1131350BB27F00DB11D639FAA27F00DB11DAA1F75
S1131360649F6627B00DA11D661F829F2227B00DC2
S1131370A11D621F739FB00DA11D621F839FA00D4D
S1131380611D221F749F3327A00D611D231F849F9D
S1131390600D211D822F762F6A2F11249F575040F4
S11313A09AF0F1F088234AF0EE0FFF1FBB1F661F6F
S11313B0771F881F91505040A9F79E3F510580F038
S11313C00C9439090C9484095F3FE4F3983ED4F3F8
S11313D0869577956795B795F795E7959F5FC1F7DC
S11313E0FE2B880F911D9695879597F90895DB013B
S11313F08F939F930E942C0ABF91AF91A29F800D5F
S1131400911DA39F900DB29F900D11240895052E58
S113141097FB1EF400940E941E0A57FD07D00E94F9
S1131420550A07FC03D04EF40C941E0A50954095BF
S1131430309521953F4F4F4F5F4F0895909580957C
S1131440709561957F4F8F4F9F4F0895EE0FFF1F4B
S11314500590F491E02D09940E94770AA59F900DC0
S1131460B49F900DA49F800D911D1124089597FBA6
S113147010F8169400080F93083098F00850232FA2
S1131480342F452F562F672F782F892F902DF4CF87
S113149005949795879577956795579547953795CB
S11314A027950A95AAF70F910895A1E21A2EAA1B6F
S11314B0BB1BFD010DC0AA1FBB1FEE1FFF1FA21700
S11314C0B307E407F50720F0A21BB30BE40BF50BFD
S11314D0661F771F881F991F1A9469F76095709586
S11314E0809590959B01AC01BD01CF010895A29F09
S11314F0B001B39FC001A39F700D811D1124911DE4
S1131500B29F700D811D1124911D0895F894FFCF91
S1131510467265713D0000000000000000000044B8
S11315207574793D000000000000000000002025D3
S113153000000054696D653D0000000000000000DB
S113154000006D73000000206B487A000001020166
S10D1550000104001E000200000068
S9030000FC
